ETIAFI96WSxxx00224086000     202507301022FWNIGJXNAFIN 00000000000000  
EMP01110110240671717240000016286749N  011101102406717                 
RZS01LANAK ETT                                              00000000  
TRA01102613772217240000058067092G                            724      
DOM                                       00000           0640838877  
LDD00000                                        0000064083887734      
FABMA 012025081807 00300  000000 0000000000000000 0000     0000  00   
DAM20231105S0000000000000000000 00000000000 0000000000000000  00000000
ODL60888888888888      9431000000000000     000   00000000            
DSC020111010014221860000000000000                                     
TRA01101799891717240000058045223P                            724      
DOM                                       00000           0631822278  
LDD00000                                        0000063182227834      
FABMA 012025072808 00410  000000 0000000000000000 0000     0000  00   
DAM20250728S0000000000000000000 00000000000 0000000000000000  00000000
ODL01000435011981      5822000000000000     000   00000000            
DSC020111011067307920000000000000                                     
ETFAFI96WSxxx00224086        202507301022FWNIGJXNAFIN 0000100000018   