ETIAFI96WSxxx00224086000     202507301022LWB6Q5DUAFIN 00000000000000  
EMP01120110669067917240000016286749N  011201106690679                 
RZS01LANAK ETT                                              00000000  
TRA01100184184817240000016293086R                            724      
DOM                                       00000           0629431178  
LDD00000                                        0000062943117834      
FABMB 932024102107 00402  000000 6100747000000000 0000     0000  00   
DAM00000000 0000000000000000000 00000000000 0000000000000000  00000000
ODL60888888888888      0000000000000000     000   00000000            
DSC020112011079442050000000000000                                     
TRA481036264142672400000X8900417S                            686      
DOM                                       00000           0632136642  
LDD00000                                        0000063213664234      
FABMB 932024102107 00402  000000 6100747000000000 0000     0000  00   
DAM00000000 0000000000000000000 00000000000 0000000000000000  00000000
ODL60888888888888      0000000000000000     000   00000000            
DSC020112011079442050000000000000                                     
TRA011008469675672400000X6530659Q                            012      
DOM                                       00000           0632482107  
LDD00000                                        0000063248210734      
FABMB 932024102107 00402  000000 6100747000000000 0000     0000  00   
DAM00000000 0000000000000000000 00000000000 0000000000000000  00000000
ODL60888888888888      0000000000000000     000   00000000            
DSC020112011079442050000000000000                                     
ETFAFI96WSxxx00224086        202507301022LWB6Q5DUAFIN 0000100000025   