ETIAFI96WSxxx00224086000     202507301022NP4HGDP4AFIN 00000000000000  
EMP01110110240671717240000016286749N  011101102406717                 
RZS01LANAK ETT                                              00000000  
TRA01102613772217240000058067092G                            724      
DOM                                       00000           0640838877  
LDD00000                                        0000064083887734      
FABMB 942025090707 00300  000000 0000000000000000 0000     0000  00   
DAM00000000 0000000000000000000 00000000000 0000000000000000  00000000
ODL60888888888888      9431000000000000     000   00000000            
DSC020111010014221860000000000000                                     
FCT01500020250909202509082025090900000000000000000000000000000000015  
TRA01101923657417240000072858411T                            724      
DOM                                       00000           0690993714  
LDD00000                                        0000069099371434      
FABMB 942025072310 00300  000000 0000000000000000 0000     0000  00   
DAM00000000 0000000000000000000 00000000000 0000000000000000  00000000
ODL01001295011981      9811000000000000     000   00000000            
DSC020111011011589520000000000000                                     
ETFAFI96WSxxx00224086        202507301022NP4HGDP4AFIN 0000100000019   