ETIAFI96WSxxx00224086000     202507291154LQR5JQOGAFIN 00000000000000  
EMP01112610769206217240000016286749N  011126107692062                 
RZS01LANAK ETT                                              00000000  
TRA261007422467672400000X4442625Z                            170      
DOM                                       00000           0638536076  
LDD00000                                        0000063853607634      
FABMB 932025072810 00410  000000 0000000000000000 0000     0000  00   
DAM00000000 0000000000000000000 00000000000 0000000000000000  00000000
ODL99001305011981      9700000000000000     000   00000000            
DSC020111260023587390000000000000                                     
ETFAFI96WSxxx00224086        202507291154LQR5JQOGAFIN 0000100000011   